:100000000070002011040000A3050000DF0C0000B8
:10001000E10C0000E30C0000E50C00000000000013
:10002000000000000000000000000000E70C0000DD
:10003000E90C000000000000EB0C0000ED0C0000DB
:10004000EF0C0000EF0C0000EF0C0000EF0C0000C4
:10005000EF0C0000EF0C0000EF0C0000EF0C0000B4
:10006000EF0C0000EF0C0000EF0C0000EF0C0000A4
:10007000EF0C0000EF0C0000EF0C0000EF0C000094
:10040000FFFFFFFFFFFFFFFFFFFFFFFFFE7FFFFF7D
:1004100072B64FF000004FF000014FF000024FF0B5
:1004200000034FF000044FF000054FF000064FF0BE
:1004300000071B484FF4401101601A481A49016037
:100440001A4880F30888FFE7194842F220510160FA
:1004500018484FF6FF710160FFE71748002809D0E0
:100460001649174A521A013A04DD0020002309C137
:10047000083AFCDA134800684FF05A318842F9D044
:10048000FFE700F063FB00F01FF862B600F022FC0B
:1004900000F00EFA00BFFEE7AFF30080AFF300807C
:1004A0000480044008ED00E00088FF1F0070002079
:1004B0000020054008200540010000000080FF1FCB
:1004C00000700020F498FF1F08B54FF0E023D3F828
:1004D000883D4FF0E02243F47003C2F8883DBFF33B
:1004E0004F8FBFF36F8F4FF0E023D3F8143D4FF0E1
:1004F000E02243F00103C2F8143D4FF0E023D3F8AB
:10050000203D4FF0E02223F47F03C2F8203D4FF05E
:1005100080434FF077321A604FF0804300221A6216
:100520004FF0804300225A624FF080430022DA628B
:100530004FF0804300221A644FF0804300225A6437
:100540004FF0804300229A644FF080430022DA6427
:100550004FF0804300221A654FF0804300225A6515
:100560004FF0804300229A654FF080430022DA6505
:100570004FF0804300221A664FF0804300225A66F3
:100580004FF0804300229A664FF080430022DA66E3
:10059000BFF34F8FBFF36F8F002000F06DFB00BFE4
:1005A00008BDFEE753B94AB9002908BF00281CBF9F
:1005B0004FF0FF314FF0FF3000F078B9ADF1080C8B
:1005C0006DE904CE00F006F8DDF804E0DDE9022371
:1005D00004B070472DE9F047089D0E4604468E464C
:1005E000002B4CD18A42944667D9B2FA82F252B1BA
:1005F00001FA02F3C2F1200120FA01F10CFA02FC27
:1006000041EA030E94404FEA1C48210CBEFBF8F669
:100610001FFA8CF708FB16E341EA034306FB07F1D8
:1006200099420AD91CEB030306F1FF3080F01E81CA
:10063000994240F21B81023E63445B1AA4B2B3FBB1
:10064000F8F008FB103344EA034400FB07F7A74225
:100650000AD91CEB040400F1FF3380F00981A742A2
:1006600040F2068164440238E41B40EA064000215F
:100670001DB1D4400023C5E90043BDE8F0878B429B
:1006800008D9002D00F0EF800021C5E900060846DA
:10069000BDE8F087B3FA83F1002949D1B34202D310
:1006A000824200F2FF80841A66EB030301209E461B
:1006B000002DE2D0C5E9004EDFE702B9FFDEB2FA55
:1006C00082F2002A40F08E80A1EB0C064FEA1C4714
:1006D0001FFA8CF30121B6FBF7FE07FB1E60260C08
:1006E00046EA004603FB0EF0B04208D91CEB0606B2
:1006F0000EF1FF3802D2B04200F2D080C646361A60
:10070000A4B2B6FBF7F007FB106644EA064400FB10
:1007100003F3A34208D91CEB040400F1FF3602D214
:10072000A34200F2B8803046E41A40EA0E409FE748
:10073000C1F1200722FA07F48B40234306FA01FC9B
:1007400026FA07F420FA07F646EA0C064FEA1349A0
:1007500000FA01F8B4FBF9FE300C1FFA83FC09FB28
:100760001E4440EA04440EFB0CF0A04202FA01F2DF
:100770000AD91C190EF1FF3A80F08B80A04240F29A
:100780008880AEF1020E1C44241AB6B2B4FBF9F014
:1007900009FB104446EA044400FB0CFCA44507D9BD
:1007A0001C1900F1FF3670D2A4456ED902381C44E2
:1007B00040EA0E40A0FB02E6A4EB0C04B442F4466F
:1007C000B14659D356D0002D6ED0B8EB0C0364EB74
:1007D0000904CB4004FA07F71F43CC40C5E9007475
:1007E00000214AE7C2F1200024FA00F10CFA02FCD1
:1007F00006FA02F326FA00F04FEA1C4741EA030624
:10080000B0FBF7F11FFA8CF307FB110E300C40EA36
:100810000E4001FB03FE864504FA02F408D91CEBE6
:10082000000001F1FF3832D2864530D902396044E8
:10083000A0EB0E00B6B2B0FBF7FE07FB1E0046EAC7
:1008400000460EFB03F0B04209D91CEB06060EF180
:10085000FF3818D2B04216D9AEF1020E6644361AED
:100860004EEA014137E72946284606E70646E4E610
:100870001846F9E6F045A6D2BEEB020C66EB030380
:10088000013899469FE7C646E9E7304690E741467A
:10089000CEE7D64678E76444023845E7AEF1020E6B
:1008A00066442CE7084603E72946E6E6704700BFA2
:1008B00000B597B02C4A15AB126811461980023367
:1008C000120C1A7015AB1293002313930323149385
:1008D000264A10AB92E8030083E8030010AB0D93A7
:1008E00000230E9308230F93214A0AAB07CA83E81B
:1008F00007000AAB0793002308930C2309931D4AB2
:1009000004AB07CA03C31A7004AB0193002302931C
:100910000923039300F008FF0121012016F023FCB6
:1009200012AB1946002016F0F7FA0DAB194601205C
:1009300016F0F2FA07AB1946022016F0EDFA01ABF9
:100940001946032016F0E8FA00BF0B4B1B7883F022
:100950000103DBB2002BF8D1074B00221A7040F6DE
:10096000B83000F001FFDBE7687401006C7401002F
:100970007474010080740100308BFF1F82B0034645
:100980008DF807309DF80730DBB2002B01D100BE97
:10099000FDE700BF02B0704710B4EFF310831C46B0
:1009A000234618465DF8044B704710B4EFF31083EC
:1009B0001C46234618465DF8044B704710B4EFF30D
:1009C00010831C46234618465DF8044B704710B44C
:1009D000EFF310831C46234618465DF8044B70471E
:1009E00010B4EFF310831C46234618465DF8044B01
:1009F0007047000082B003460A46ADF80630134641
:100A00008DF805309DF80530002B0FD1094B1B7870
:100A10000133DAB2074B1A70064B1B78042B05D151
:100A2000044B00221A70044B01221A7000BF02B05E
:100A3000704700BFF098FF1F308BFF1F86B0034642
:100A40000091ADF8063000238DF8173010E0009BC0
:100A50001A689DF817301A449DF81730127806A9C5
:100A60000B4403F80C2C9DF8173001338DF8173028
:100A70009DF81720009B9B689A42E8D3BDF806308A
:100A8000002B06D1064B1B780133DAB2044B1A70E7
:100A900000E000BF034B01221A7000BF06B0704790
:100AA000F198FF1F318BFF1F82B003460A46ADF855
:100AB000063013468DF805309DF80530002B08D11F
:100AC000054B1B780133DAB2034B1A70034B01223A
:100AD0001A7000BF02B07047F298FF1F328BFF1FE1
:100AE00086B003460091ADF8063000238DF817302C
:100AF00010E0009B1A689DF817301A449DF81730D3
:100B0000127806A90B4403F80C2C9DF8173001331A
:100B10008DF817309DF81720009B9B689A42E8D308
:100B2000BDF80630012B06D1064B1B780133DAB233
:100B3000044B1A7000E000BF034B01221A7000BF83
:100B400006B07047F398FF1F338BFF1F8AB0002356
:100B50000793002306930023099300230893444B33
:100B60000593444B0493059B1B680793059B043333
:100B70000593059B0393002309933DE0099A1346CF
:100B80005B0013449B001A46039B13445B6800936D
:100B9000099A13465B0013449B001A46039B1344B7
:100BA0001B680193099A13465B0013449B001A4685
:100BB000039B13449B681946099A13465B00134430
:100BC0009B001A46039B13445B68CB1A06930023D1
:100BD00008930AE0009A089B1A440199089B0B4469
:100BE00012781A70089B01330893089A069B9A4260
:100BF000F0D3099B01330993099A079B9A42BDD30D
:100C0000049B1B680793049B04330493049B029387
:100C10000023099324E0099BDB00029A13441B681C
:100C20000193099BDB00029A13445B681946099BF8
:100C3000DB00029A13441B68CB1A06930023089327
:100C400007E0019A089B134400221A70089B0133A5
:100C50000893089A069B9A42F3D3099B01330993A0
:100C6000099A079B9A42D6D300BF00BF0AB07047CB
:100C7000849A0100A09A010084B003468DF80730E1
:100C800000238DF80F309DF80730002B18D1104B42
:100C90004FF0A0621A600E4B1B680D4A43F00043F0
:100CA000136000BF0A4B1B6803F00043B3F1004F11
:100CB000F8D0074B1B68064A43F00103136002E0BB
:100CC00001238DF80F309DF80F30184604B070479F
:100CD000002008E000BF7047002318467047FEE779
:100CE000FEE7FEE7FEE7FEE7FEE7FEE7FEE7FEE7DC
:100CF00000B583B0264B0093A8220021009800F095
:100D000067FD009B03221A61009B03225A61009B2E
:100D1000204A9A61009B204ADA61009B4FF480626E
:100D20001A62009B00229A62009B00225A62009B7A
:100D30000022DA62009B174A1A66009B174A5A661D
:100D4000009B10229A66009B00221A67009B0022DB
:100D5000DA66009B00225A67BFF35F8F002301937E
:100D60000CE0019BC3F10F030D4AD15C009A019B7B
:100D700013440A461A70019B01330193019B0F2B08
:100D8000EFD9BFF35F8F00BF03B05DF804FB00BF76
:100D90001099FF1F607E0100B899FF1FB89DFF1FCB
:100DA000609A010000B58BB003900291019200237C
:100DB0000893039BDB680793039B1B690693069AC2
:100DC000079B9A4205D9069A079BD31A013B0993C0
:100DD00007E0039B9A680699079BCB1A1344013BD3
:100DE0000993039B9A68079BD31A099A934228BFD9
:100DF00013460993099A019B934228BF134609930E
:100E0000039B5A68079B13440593099A0299059816
:100E100000F0D0FC089A099B13440893029A099B9E
:100E200013440293019A099BD31A0193079A099BD1
:100E300013440793039B9B68079A9A4201D10023AE
:100E40000793BFF35F8F039B079ADA60019B002B28
:100E5000B2D1089B18460BB05DF804FB00B589B011
:100E6000039002910192039BDB680793039B9A68AE
:100E7000079BD31A0693069A019B9A4211D9039BAA
:100E80005A68079B13440493019A0299049800F04E
:100E900091FCBFF35F8F079A019B1A44039BDA60B2
:100EA0001FE0069B0593039B5A68079B134404931A
:100EB000059A0299049800F07DFC019A069BD31ACA
:100EC0000593039B5B680493029A069B1344059A5F
:100ED0001946049800F06EFCBFF35F8F039B059AE0
:100EE000DA6000BF09B05DF804FB86B00190019B99
:100EF0001B690493019BDB680393049A039B9A424A
:100F000008D8019B9A68039BD21A049B1344013BA7
:100F1000059304E0049A039BD31A013B0593059BB8
:100F2000184606B07047000000B589B003900291E2
:100F30000192029B0693039B5A1C13465B001344C9
:100F4000DB00204A13440593059B5B69022B29D0E3
:100F5000022B2ED8002B02D0012B13D029E00598AC
:100F6000FFF7C3FF0490049A019B9A4202D2002328
:100F7000079321E0019B0793019A06990598FFF7D3
:100F80006DFF19E00598FFF7B0FF0490019A049BEC
:100F9000934228BF13460793079A06990598FFF7CF
:100FA0005DFF09E0019A06990598FFF7FBFE07909F
:100FB00002E00023079300BF079B184609B05DF8C5
:100FC00004FB00BF1099FF1F00B589B00390029188
:100FD00001920F4B0793079B1B78DBB2532B01D079
:100FE000FFF786FEEFF311834FF0200181F31188A4
:100FF0000693019A02990398FFF796FF0590069BC6
:1010000083F31188059B184609B05DF804FB00BF07
:101010001099FF1F08B5FFF76BFE00BF08BD00B5B4
:1010200085B001900B468DF80330019B9B680393BC
:10103000039B5A1C019B5B689A420FD8019B1A685C
:10104000039B13449DF803201A70039B5A1C019BB9
:101050009A60019BDB685A1C019BDA60019B9A68CD
:10106000019B5B689A4215D1019B1869019B196825
:10107000019B9B681A46FFF7A7FF0246019B9B68EE
:101080009A4204D0019B4FF0FF32DA6002E0019BEC
:1010900000229A6000BF05B05DF804FB00B58BB07C
:1010A0000390029101920093029B089301230993FC
:1010B0000123079307E0089A019BB2FBF3F308931F
:1010C000079B01330793089A019B9A42F3D2009A37
:1010D000079B9A4201D9009B07930D9B03F00103E4
:1010E000002B28D10C9B002B25D00D9B03F0020375
:1010F000002B06D0009B002B03D130238DF81B3032
:1011000002E020238DF81B300CE00C9B013B0C937C
:101110009DF81B3019460398FFF781FF039BDB689E
:10112000002B07DB0C9B002B05D0079A0C9B9A42E7
:10113000EBD300E000BF039BDB68002B55DB009B7B
:10114000012B03D9009B013B009309E0029A099B04
:10115000B2FBF3F30593059A019B9A4200D205E096
:10116000099B019A02FB03F30993E8E7029A099BA2
:10117000B2FBF3F30593059B099A02FB03F3029A72
:10118000D31A02931B4A059B13441B7819460398F4
:10119000FFF745FF039BDB68002B08DB099A019BE7
:1011A000B2FBF3F30993099B002BDFD100E000BFF2
:1011B0000D9B03F00103002B17D00C9B002B14D0C8
:1011C0000AE00C9B013B0C9320210398FFF727FFBB
:1011D000039BDB68002B07DB0C9B002B05D0079AD9
:1011E0000C9B9A42EDD300E000BF00BF0BB05DF84E
:1011F00004FB00BF749A010000B589B0059004910A
:1012000003920293049B002BB8BF5B420693012319
:10121000079307E0039B069A92FBF3F30693079B61
:1012200001330793039B069A9A42F3DA029A079BCB
:101230009A4201D9029B07930A9B002B0AD0049B78
:10124000002B04DB0B9B03F00403002B02D00A9B52
:10125000013B0A930B9B03F00203002B02D0029B7D
:10126000002B1CD00B9B03F00103002B17D10A9B12
:10127000002B14D00AE00A9B013B0A932021059819
:10128000FFF7CDFE059BDB68002B07DB0A9B002BDD
:1012900005D0079A0A9B9A42EDD300E000BF059B58
:1012A000DB68002B4ADB049B002B07DA049B5B42C4
:1012B00004932D210598FFF7B2FE08E00B9B03F085
:1012C0000403002B03D02B210598FFF7A8FE059BF4
:1012D000DB68002B32DB0B9B03F00203002B1FD0DB
:1012E0000B9B03F00103002B1AD1029B002B17D19B
:1012F0000A9B002B14D00AE00A9B013B0A93302181
:101300000598FFF78CFE059BDB68002B07DB0A9B2B
:10131000002B05D0079A0A9B9A42EDD300E000BF4C
:10132000059BDB68002B09DB04990B9B01930A9B4F
:101330000093029B039A0598FFF7B0FE00BF09B027
:101340005DF804FB00B5A3B005900491039206ABD1
:1013500016934023179300231893059B1A93002399
:101360001993049B1B788DF88730049B01330493F9
:101370009DF88730002B00F09C819DF88730252B4D
:1013800040F08B8100231E9301232093049B1B7844
:101390008DF887309DF88730233B0D2B3ED801A276
:1013A00052F823F00D1400001D1400001D1400005D
:1013B0001D1400001D1400001D1400001D14000069
:1013C0001D140000FD1300001D140000DD130000BB
:1013D0001D1400001D140000ED1300001E9B43F0BF
:1013E00001031E93049B013304931AE01E9B43F0F8
:1013F00002031E93049B0133049312E01E9B43F0EF
:1014000004031E93049B013304930AE01E9B43F0E4
:1014100008031E93049B0133049302E000232093EE
:1014200000BF209B002BB1D100231D93049B1B7890
:101430008DF887309DF887302F2B12D99DF8873093
:10144000392B0ED8049B013304931D9A13469B003D
:1014500013445B001A469DF887301344303B1D93BC
:10146000E4E700231F93049B1B788DF887309DF8D9
:1014700087302E2B1DD1049B01330493049B1B78D2
:101480008DF887309DF887302F2B12D99DF8873043
:10149000392B0ED8049B013304931F9A13469B00EB
:1014A00013445B001A469DF887301344303B1F936A
:1014B000E4E7049B1B788DF887309DF887306C2B10
:1014C00003D09DF88730682B07D1049B0133049328
:1014D000049B1B788DF88730EFE79DF88730252B2C
:1014E00000F0D080252BC0F2D380782B00F3D08081
:1014F000582BC0F2CD80583B202B00F2C98001A2AE
:1015000052F823F0F5150000911600009116000026
:10151000911600009116000091160000911600002F
:10152000911600009116000091160000911600001F
:1015300089150000AD1500009116000091160000FD
:1015400091160000911600009116000091160000FF
:1015500091160000911600009116000091160000EF
:10156000911600006116000091160000911600000F
:101570001916000091160000D11500009116000008
:1015800091160000F5150000039B1B68191D039AB6
:1015900011601B682093209B8DF86F309DF86F20A1
:1015A00016AB11461846FFF73AFD72E0039B1B6825
:1015B000191D039A11601B68209316A81E9B0193A6
:1015C0001D9B00931F9B0A222099FFF715FE60E0E8
:1015D000039B1B68191D039A11601B6820932099B7
:1015E00016A81E9B01931D9B00931F9B0A22FFF7C9
:1015F00055FD4EE0039B1B68191D039A11601B6883
:101600002093209916A81E9B01931D9B00931F9B5E
:101610001022FFF743FD3CE0039B1B68191D039A52
:1016200011601B681C931C9B002B01D12C4B1C933D
:101630001C9B1B788DF887301C9B01331C939DF8F5
:101640008730002B0AD09DF8872016AB114618462C
:10165000FFF7E5FC199B002BEADA1AE000BF18E05F
:10166000039B1B68191D039A11601B682093209926
:1016700016A8002301930823009308231022FFF7E4
:101680000DFD06E016AB25211846FFF7C8FC00E06B
:1016900000BF049B0133049306E09DF8872016AB3E
:1016A00011461846FFF7BBFC199B002BBFF659AE3D
:1016B00000E000BF199B002B0CDD189B002B05D010
:1016C000189A06AB19460598FFF77EFC199B189AE5
:1016D00013441993199B184623B05DF804FB00BF0F
:1016E0006C7E01000EB400B584B0019006AB02938D
:1016F00002AB1A4605990198FFF724FE0390039B5D
:10170000184604B05DF804EB03B0704708B505480F
:1017100004F038FA002004F0E9FA002004F0B0FAEE
:1017200000BF08BDD892010008B5FFF7EFFF002009
:1017300000F0D1FB002000F071FA074804F0BAFE77
:10174000064808F0B5F8064808F0BCFD054815F055
:10175000D9FB00BF08BD00BF40990100409A0100BD
:101760009C8D0100188C010000B587B00190019B91
:101770004FF47A7202FB03F30121184600F000FCDB
:101780000490012000F0B0FB03460393002305936F
:1017900003AB0121184600F0C0FB0246059B134431
:1017A0000593059A049B9A42F2D300BF00BF07B08D
:1017B0005DF804FB0A44914200F1FF3300D1704709
:1017C00010B511F8014B03F8014F9142F9D110BD4A
:1017D00002440346934200D1704703F8011BF9E726
:1017E00000B587B0039002910192039B0593059B7E
:1017F000DB43DB0FDBB21846FFF7C0F8059B7A2B03
:10180000D4BF01230023DBB21846FFF7B7F84FF02F
:10181000E023D3F8083D144A93422CBF0123002350
:10182000DBB21846FFF7AAF84FF0E023D3F8083DE3
:101830000493019B002B07D0039B10339B00049A59
:1018400013441A68019B1A60039B10339B00049A8F
:101850001344029A1A60BFF36F8FBFF34F8F00BF1C
:1018600007B05DF804FB00BF0080FF1F00B583B028
:101870000190019BDB43DB0FDBB21846FFF77EF8DC
:10188000019B7A2BD4BF01230023DBB21846FFF75C
:1018900075F8019B03F01F020549019B5B090120BC
:1018A00000FA02F241F8232000BF03B05DF804FB08
:1018B00000E100E000B583B00190019BDB43DB0F4A
:1018C000DBB21846FFF75AF8019B7A2BD4BF0123ED
:1018D0000023DBB21846FFF751F8019B03F01F020B
:1018E0000649019B5B09012000FA02F2203341F80E
:1018F000232000BF03B05DF804FB00BF00E100E05F
:1019000000B585B001900B468DF80330019BDB4399
:10191000DB0FDBB21846FFF731F8019B7A2BD4BFFF
:1019200001230023DBB21846FFF728F89DF80330A7
:101930000F2B94BF01230023DBB21846FFF71EF8DC
:1019400004238DF80F309DF803209DF80F3002FA24
:1019500003F1054A019BC9B213440A4683F80023E8
:1019600000BF05B05DF804FB00E100E000B585B004
:101970000190019BDB43DB0FDBB21846FEF7FEFF55
:10198000019B7A2BD4BF01230023DBB21846FEF75C
:10199000F5FF04238DF80F30094A019B134493F897
:1019A0000033DBB21A469DF80F3042FA03F38DF88C
:1019B0000E309DF80E30184605B05DF804FB00BFF0
:1019C00000E100E000B583B00190019BDB43DB0F39
:1019D000DBB21846FEF7D2FF019B7A2BD4BF01235E
:1019E0000023DBB21846FEF7C9FF019B03F01F027C
:1019F0000649019B5B09012000FA02F2603341F8BD
:101A0000232000BF03B05DF804FB00BF00E100E04D
:101A100000B585B00190019B002B14BF012300236A
:101A2000DBB21846FEF7AAFF019B1B68592B94BF37
:101A300001230023DBB21846FEF7A0FF0023039327
:101A40005DE0019B5968039A13465B0013449B00B9
:101A50000B441B68184600F099F8019B5968039ADB
:101A600013465B0013449B000B441868019B5968A4
:101A7000039A13465B0013449B000B445B791946A1
:101A800000F069F8019B5968039A13465B00134400
:101A90009B000B441868019B5968039A13465B002E
:101AA00013449B000B449B680022194600F031F858
:101AB000019B5968039A13465B0013449B000B4437
:101AC0001B79002B0CD0019B5968039A13465B00CD
:101AD00013449B000B441B68184600F028F80BE0E9
:101AE000019B5968039A13465B0013449B000B4407
:101AF0001B68184600F025F8039B01330393019BF4
:101B00001B68039A9A429CD30023184605B05DF8DF
:101B100004FB00B585B0039002910192019A0299ED
:101B20000398FFF75DFE00BF05B05DF804FB00B54C
:101B300083B001900198FFF799FE00BF03B05DF8F4
:101B400004FB00B583B001900198FFF7B3FE00BF1E
:101B500003B05DF804FB00B583B001900B468DF82F
:101B600003309DF8033019460198FFF7C9FE00BF06
:101B700003B05DF804FB00B583B001900198FFF756
:101B8000F5FE0346184603B05DF804FB00B583B0CC
:101B900001900198FFF716FF00BF03B05DF804FB4A
:101BA00000B583B001900B468DF803309DF80330EB
:101BB000002B03D00198FFF7BAFF02E00198FFF76E
:101BC000C0FF00BF03B05DF804FB00B583B0019017
:101BD0000B468DF803309DF8033019460198FFF746
:101BE000BAFF00BF03B05DF804FB00B583B00190FD
:101BF0000198FFF7C0FF0346184603B05DF804FBE9
:101C000000B585B0039002910192019A0299039860
:101C1000FFF77FFF00BF05B05DF804FB00B585B09E
:101C2000019000238DF80F30019B002B06D001237B
:101C300020220021FF2015F08BF808E09DF80F30DE
:101C4000054A52F823301B68184600F017F900BF08
:101C500005B05DF804FB00BF0493010000B585B03A
:101C600001900B468DF8033000238DF80F30019B57
:101C70007A2B02DC019B002B09DA022321220021AE
:101C8000FF2015F065F801238DF80F3005E09DF871
:101C9000033019460198FFF783FF9DF80F3018466F
:101CA00005B05DF804FB00B585B001900B468DF8DA
:101CB000033000238DF80F30019B7A2B06DC019B4B
:101CC000002B03DB9DF803300F2B09D902232222BE
:101CD0000021FF2015F03CF801238DF80F3005E0BE
:101CE0009DF8033019460198FFF76FFF9DF80F30FC
:101CF000184605B05DF804FB00B585B00190009171
:101D000000238DF80F30019B7A2B02DC019B002B06
:101D100009DA022323220021FF2015F019F80123FC
:101D20008DF80F3013E0009B002B09D101232322F3
:101D30000021FF2015F00CF801238DF80F3006E08C
:101D40000198FFF752FF03461A46009B1A709DF850
:101D50000F30184605B05DF804FB00B587B003905E
:101D60000291019200238DF81730039B7A2B02DC3D
:101D7000039B002B09DA022324220021FF2014F008
:101D8000E7FF01238DF8173004E0019A02990398C8
:101D9000FFF736FF9DF81730184607B05DF804FBD3
:101DA00000B585B00190002303935DE0019B596865
:101DB000039A13465B0013449B000B441B681846B0
:101DC000FFF7E4FE019B5968039A13465B00134436
:101DD0009B000B441868019B5968039A13465B00EB
:101DE00013449B000B445B791946FFF7B4FE019B3B
:101DF0005968039A13465B0013449B000B44186810
:101E0000019B5968039A13465B0013449B000B44E3
:101E10009B6800221946FFF77CFE019B5968039AD4
:101E200013465B0013449B000B441B79002B0CD022
:101E3000019B5968039A13465B0013449B000B44B3
:101E40001B681846FFF773FE0BE0019B5968039A65
:101E500013465B0013449B000B441B681846FFF7B6
:101E600070FE039B01330393019B1B68039A9A4204
:101E70009CD30023184605B05DF804FB00B585B07F
:101E8000019000238DF80F30019B1B68002B07D0B9
:101E9000019B1B681846FFF783FF03468DF80F3040
:101EA0009DF80F30002B00BF05B05DF804FB002348
:101EB0001846704782B001900123184602B070475F
:101EC00082B0019000BF02B0704782B00190019BC8
:101ED000184602B0704700B583B0019000F06CF86E
:101EE00000BF03B05DF804FB00B585B0019000238E
:101EF0000393019B002B03D0019B012B04D007E02F
:101F0000FFF7D5FF039003E000F072F8039000BFE5
:101F1000039B184605B05DF804FB00B585B0019041
:101F2000009100230393009B002B03D0009B012B07
:101F300005D009E00198FFF7BDFF039004E0019888
:101F400000F064F8039000BF039B184605B05DF8ED
:101F500004FB00B583B001900091009B002B03D0DF
:101F6000009B012B04D007E00198FFF7A9FF03E0D5
:101F7000019800F05BF800BF00BF03B05DF804FB00
:101F800000B585B00190009100230393009B002BC6
:101F900003D0009B012B05D009E00198FFF795FFC6
:101FA000039004E0019800F04FF8039000BF039BFA
:101FB000184605B05DF804FB00B583B0002301931B
:101FC000094A019B52F823305A680849019B41F89D
:101FD0002320064A019B52F82330184600F068F887
:101FE00000BF03B05DF804FBFC920100348BFF1FBF
:101FF00000B583B0002301930023009300F06CF838
:102000000190019B184603B05DF804FB00B585B054
:1020100001900023039300230293019800F064F8D9
:102020000390039B184605B05DF804FB84B0019053
:10203000002303930349039B019A41F8232000BF27
:1020400004B07047348BFF1FF0B587B001900021BA
:10205000059100210491019900200E46074612487F
:10206000049950F8211000200C46054604FB07F0A7
:1020700006FB05F10144A6FB042319440B46CDE9F8
:102080000223CDE90223DDE90201084A4FF00003F3
:10209000FEF788FA02460B46CDE90223029B059320
:1020A000059B184607B0F0BD348BFF1F40420F0060
:1020B00082B00190074B00221A60064B6FF07F42FE
:1020C0005A60044B00229A60024B05221A6000BF3E
:1020D00002B0704710E000E0024B9B6823F07F43A2
:1020E0001846704710E000E084B00190104B9B68E8
:1020F00023F07F43029300230393019B1B68029A02
:102100009A4209D9019B1A68029BD31A03F1FF1363
:1021100003F57F43039304E0019B1A68029BD31AE3
:102120000393019B029A1A60039B184604B0704700
:1021300010E000E082B00190009100BF02B0704753
:1021400000B585B00190244B01221A70234B1B6807
:102150000221184603F032FC00238DF80F3015E001
:102160009DF80F30019A4A33DB00134458689DF8FC
:102170000F30019A4A33DB0013449B68194601F083
:10218000DCFA9DF80F3001338DF80F30019BDB7BBB
:102190009DF80F209A42E3D300F024F801238DF834
:1021A0000F300EE09DF80F20019B7E3253F8323045
:1021B0000B499DF80F20CA549DF80F3001338DF85C
:1021C0000F30019BDB7C9DF80F209A42EAD300BFC1
:1021D00000BF05B05DF804FB108BFF1F388BFF1F9D
:1021E000448BFF1F08B5234B1B7883F00103DBB240
:1021F000002B3DD01F4B01221A701F4B5B68002142
:10220000002098471C4B9B68572098471B4B1B6826
:10221000002098471A4B1B6800209847194B1B68F1
:1022200000209847184B5B6800209847164B9B6826
:1022300057209847154B1B6800209847134B5B6845
:10224000002157209847124B1B6800209847114BDC
:102250005B68002098470F4B9B68572098470E4BB0
:102260005B68002098470D4B1B68002100209847B1
:1022700000BF08BD3C8BFF1F1085010024840100B6
:102280006084010068840100908401009C84010046
:10229000D4840100208501004C850100488501009F
:1022A00000B585B00190019BDB7A03931FE0039B8F
:1022B0005A1E019B0D3253F832205A491346DB0057
:1022C00013440B4401331B781A46574B9B5C029313
:1022D000564A029B52F83330039A013A0D32D2002B
:1022E00001990A4410469847039B013B0393039BC3
:1022F000002BDCD1019B9B7B039326E0039B013BDE
:10230000019A24331B01134404331A6845491346C8
:10231000DB0013440B4401331B781A46444B9B5C8F
:1023200002934449029A13465B0013449B000B44FA
:102330001B68039A013A2432120101990A440432BB
:1023400010469847039B013B0393039B002BD5D179
:10235000019B9B7A03932AE0039B5A1E0199134623
:102360009B001344DB000B4440331A682D4913468D
:10237000DB0013440B4401331B781A462E4B9B5C45
:1023800002932E49029A13469B0013449B000B4470
:102390001968039B5A1E13469B001344DB0040330D
:1023A000019A134418468847039B013B0393039B00
:1023B000002BD1D1019B5B7A03932BE0039B5A1E28
:1023C000019913469B0013449B000B442C331A685D
:1023D00014491346DB0013440B4401331B781A469F
:1023E000174B9B5C02931749029A13469B001344B8
:1023F0009B000B441968039B5A1E13469B00134411
:102400009B002833019A1344043318468847039BE2
:10241000013B0393039B002BD0D100BF00BF05B04D
:102420005DF804FB147F0100E47E01004C8501008F
:10243000C47E010090840100D47E0100208501004B
:10244000947E01006884010000B585B001900123ED
:102450000393019800F018F80A4B1B78002B0AD060
:1024600000F074FB0290029B002B06D100F0F2FBFF
:102470000023039301E000230393039B184605B058
:102480005DF804FB408BFF1F10B584B001909F4A9C
:10249000019B13600121019803F090FA9B4B1B688C
:1024A000002B30D00023039327E00199039A1346B1
:1024B0009B0013449B000B4403F574731A68944902
:1024C0001346DB0013440B4401331B781A46914B2F
:1024D0009B5C0293904A029B1B0113441968039A68
:1024E00013469B0013449B0003F57473019A134435
:1024F00018468847039B01330393019B9B7C1A4634
:10250000039B9342D1D30198FFF7CAFE00230393A4
:1025100029E00199039A13465B0013449B000B4486
:1025200014331A687A491346DB0013440B44013311
:102530001B781A46794B9B5C02937949029A1346A1
:102540005B0013449B000B441968039A13465B001D
:1025500013449B001033019A1344043318468847F0
:10256000039B01330393019B1B7A1A46039B9342FF
:10257000CFD3002303932AE00199039A13469B00CB
:1025800013449B000B442C331A6861491346DB004B
:1025900013440B4401331B781A46624B9B5C029335
:1025A0006149029A13469B0013449B000B44043379
:1025B0001968039A13469B0013449B002833019A21
:1025C0001344043318468847039B01330393019B4C
:1025D0005B7A1A46039B9342CED30198FFF7B0FD76
:1025E0000023039328E00199039A13469B001344A8
:1025F0009B000B4403F56F731A6845491346DB00D3
:1026000013440B4401331B781A46484B9B5C0293DE
:10261000474A029B52F82340039A13469B001344F7
:102620009B0003F56E73019A134404330399184613
:10263000A047039B01330393019B5B7C1A46039BDA
:102640009342D0D30023039326E00199039A1346C3
:102650005B0013449B000B4403F50E731A682C496E
:102660001346DB0013440B4401331B781A46314BED
:102670009B5C0293304A029B52F83310039A134634
:102680005B0013449B0003F50E73019A1344184634
:102690008847039B01330393019B5B7B1A46039B93
:1026A0009342D2D30023039326E00199039A134661
:1026B0005B0013449B000B4403F5A4731A68144990
:1026C0001346DB0013440B4401331B781A461B4BA3
:1026D0009B5C02931A4A029B52F82310039A1346FA
:1026E0005B0013449B0003F5A473019A134418463E
:1026F0008847039B01330393019B1B7B1A46039B73
:102700009342D2D30023039344E000BF388BFF1FD2
:10271000147F0100047F010010850100A47E0100E8
:10272000D4840100947E010068840100F47E0100DD
:1027300048850100847E010060840100747E0100F0
:10274000248401000199039A13465B0013449B0003
:102750000B4403F50E731A68AC491346DB001344AF
:102760000B4401331B781A46A94B9B5C0293A94A80
:10277000029BDB0013445968039A13465B00134421
:102780009B0003F50E73019A134418468847039B78
:1027900001330393019B5B7B1A46039B9342D1D386
:1027A0000023039329E00199039A13469B001344E5
:1027B000DB000B4440331A6894491346DB00134492
:1027C0000B4401331B781A46934B9B5C029393494D
:1027D000029A13469B0013449B000B440433196870
:1027E000039A13469B001344DB004033019A1344C1
:1027F00018468847039B01330393019B9B7A1A4633
:10280000039B9342CFD30023039329E00199039ABA
:1028100013469B0013449B000B4403F574731A6822
:102820007A491346DB0013440B4401331B781A46E4
:102830007B4B9B5C02937B4A029B1B01134404333A
:102840001C68039A13469B0013449B0003F57473A2
:10285000019A134403991846A047039B013303933D
:10286000019B9B7C1A46039B9342CFD30023039387
:102870002AE00199039A13469B0013449B000B44E2
:102880002C331A6861491346DB0013440B440133AF
:102890001B781A46644B9B5C02936449029A134668
:1028A0009B0013449B000B4408331968039A13469A
:1028B0009B0013449B002833019A134404331846A9
:1028C0008847039B01330393019B5B7A1A46039B62
:1028D0009342CED30023039329E00199039A134630
:1028E0009B001344DB000B4440331A6847491346EE
:1028F000DB0013440B4401331B781A46464B9B5CA8
:1029000002934649029A13469B0013449B000B44D2
:102910000C331968039A13469B001344DB004033C1
:10292000019A134418468847039B01330393019B84
:102930009B7A1A46039B9342CFD30023039325E04F
:10294000019A039B24331B01134404331A682F4953
:102950001346DB0013440B4401331B781A46344BF7
:102960009B5C02933349029A13465B0013449B001D
:102970000B4404331B68039A2432120101990A4460
:10298000043210469847039B01330393019B9B7BC2
:102990001A46039B9342D3D3274B00221A70264B2F
:1029A00000225A70244B01229A70234B0022DA70C5
:1029B00000F09CFA002303934CE0019A039B0D3333
:1029C000DB0013445B681D4A52F82330032B3BD0D5
:1029D000019B039A0D3253F832200C491346DB0059
:1029E00013440B4401331B781A46154B9B5C02932E
:1029F000144A029BDB0013445B68039A0D32D20039
:102A000001990A441046984721E000BF147F010055
:102A1000847E010060840100D47E010020850100D5
:102A2000047F010010850100947E0100688401008C
:102A3000C47E010090840100408BFF1F6083010071
:102A4000E47E01004C8501003A4B01221A70039B81
:102A500001330393019BDB7A1A46039B9342ACD369
:102A6000344B1B7883F00103DBB2002B5ED00023D4
:102A700003931FE0019A039B4E33DB0013445A6813
:102A80002D491346DB0013440B4401331B781A46CF
:102A90002A4B9B5C02932A4A029B52F83330039ADA
:102AA0004E32D20001990A44043210469847039BE3
:102AB00001330393019B1B7C1A46039B9342D9D39A
:102AC0000023039328E00199039A13469B001344C3
:102AD0009B000B4403F574731A6817491346DB0017
:102AE00013440B4401331B781A46164B9B5C02932C
:102AF000154A029B1B0113440C331968039A1346B1
:102B00009B0013449B0003F57473019A1344184609
:102B10008847039B01330393019B9B7C1A46039BCD
:102B20009342D0D30421019802F048FF00BF04B0C3
:102B300010BD00BF408BFF1F147F0100B47E010059
:102B40009C840100047F01001085010000B587B05E
:102B500002230593002304932CE0364A049B52F889
:102B6000232035491346DB0013440B4401331B7803
:102B70001A46324B9B5C03933149039A13469B00E0
:102B800013449B000B4408331B682A49049A51F8EC
:102B90002220104698470290029B012B02D101236C
:102BA00005930DE0029B022B01D100230593049BAA
:102BB00001330493234B9B781A46049B9342CCD356
:102BC000059B002B30D10023049327E01E4A049B71
:102BD00052F8232018491346DB0013440B440133F9
:102BE0001B781A46194B9B5C03931949039A1346A9
:102BF0005B0013449B000B4408331B681249049A82
:102C000051F82220104698470190019B012B02D1D8
:102C10000123059308E0049B01330493094BDB78FF
:102C20001A46049B9342D1D3059B184607B05DF822
:102C300004FB00BF1C840100147F0100D47E01004E
:102C400020850100408BFF1F20840100C47E01000D
:102C50009084010000B583B0554B1B68002B00F039
:102C6000A280002301932CE0514B1A68019B0D3385
:102C7000DB0013445B684F4A52F82330032B1DD10D
:102C80004B4B1B68019A0D3253F832204A491346C8
:102C9000DB0013440B4401331B781A46474B9B5C03
:102CA0000093474A009BDB0013445B68404A11686D
:102CB000019A0D32D2000A4410469847019B013315
:102CC00001933B4B1B68DB7A1A46019B9342CBD3A3
:102CD0003C4B1B78002B66D00023019321E0344B42
:102CE0001A68019B4E33DB0013445A68324913467D
:102CF000DB0013440B4401331B781A46324B9B5CB8
:102D00000093324A009B52F83330294A1168019AE5
:102D10004E32D2000A44043210469847019B0133D8
:102D20000193234B1B681B7C1A46019B9342D6D30D
:102D3000002301932AE01E4B1968019A13469B0059
:102D400013449B000B4403F574731A681A49134625
:102D5000DB0013440B4401331B781A461C4B9B5C6D
:102D600000931C4A009B1B0113440C331968104B41
:102D70001868019A13469B0013449B0003F5747373
:102D8000034418468847019B01330193084B1B6895
:102D90009B7C1A46019B9342CDD3054B1B680421B3
:102DA000184602F00BFE00BF03B05DF804FB00BF45
:102DB000388BFF1F60830100147F0100E47E010057
:102DC0004C850100408BFF1FB47E01009C840100F4
:102DD000047F01001085010000B585B001900C4909
:102DE000019A1346DB0013440B4401331B781A4647
:102DF000084B9B5C0393084A039B1B011344083355
:102E00001B680198984700BF05B05DF804FB00BF40
:102E1000147F0100047F01001085010082B0019041
:102E2000024A019B136000BF02B07047148BFF1F62
:102E300000B585B001900C49019A1346DB0013449C
:102E40000B4401331B781A46084B9B5C0393084ADA
:102E5000039BDB0013445B6801210198984700BF86
:102E600005B05DF804FB00BF147F0100B47E0100D3
:102E70009C84010000B585B001900C49019A13466D
:102E8000DB0013440B4401331B781A46084B9B5C50
:102E90000393084A039BDB0013445B6800210198FD
:102EA000984700BF05B05DF804FB00BF147F010028
:102EB000B47E01009C84010000B583B001900091B4
:102EC000084B00221A70084B1B680221184602F0BA
:102ED00075FD0099019802F051FC00BF03B05DF848
:102EE00004FB00BF108BFF1F388BFF1F82B06FF0F9
:102EF00080530193064B5B78002B05D0019B013B6F
:102F00000193019B002BF9D100BF02B0704700BFB5
:102F1000408BFF1F00B583B001900091044B1B68EC
:102F200000990198984700BF03B05DF804FB00BF0B
:102F3000148BFF1F00B585B003900291019200939E
:102F40000020FEF7D1FF0246039B1A60029B00227D
:102F50001A6000210098FFF713F80246019B1A60DF
:102F600000BF05B05DF804FB00B587B00390029187
:102F7000019200238DF8173000210398FEF7CDFF52
:102F80000246029B1B681A44029B1A60029B1B6844
:102F9000019A9A4202D801238DF817309DF8173014
:102FA000184607B05DF804FB82B0019000BF02B084
:102FB000704700B583B00190019B002B02D00198AF
:102FC00000F0ADF800BF03B05DF804FB00B583B0BE
:102FD0000190019B002B02D0019800F0CDF800BFBA
:102FE00003B05DF804FB00B583B00190019B002B9A
:102FF00002D0019800F0EEF800BF03B05DF804FBCA
:1030000000B583B00190019B002B02D0019800F025
:10301000F9F800BF03B05DF804FB00B583B0019080
:10302000019B002B02D0019800F004F900BF03B00F
:103030005DF804FB00B583B00190019B002B02D02A
:10304000019800F00FF900BF03B05DF804FB00B574
:1030500083B00190019B002B02D0019800F01AF977
:1030600000BF03B05DF804FB00B583B00190019B85
:10307000002B02D0019800F025F900BF03B05DF8E5
:1030800004FB00B583B00190019B002B02D0019896
:1030900000F030F900BF03B05DF804FB00B583B069
:1030A0000190019B002B02D0019800F03BF900BF7A
:1030B00003B05DF804FB00B583B00190019B002BC9
:1030C00002D0019800F046F900BF03B05DF804FBA0
:1030D00000B583B00190019B002B02D0019800F055
:1030E00051F900BF03B05DF804FB00B583B0019057
:1030F000019B002B02D0019800F05EF900BF03B0E5
:103100005DF804FB00B583B00190019B002B02D059
:10311000019800F08BF900BF03B05DF804FB86B0A6
:103120000190019B1A6811491346DB0013440B44BC
:103130001B780593019B5B680D4AD35C04930D4A91
:10314000059B52F823301B680393039B23F007036E
:103150000393039A049B13430393064A059B52F877
:103160002330039A1A6000BF06B07047147F010035
:103170000C8301005083010086B00190019B1A6806
:1031800011491346DB0013440B441B780593019B44
:103190005B680E4AD35C04930D4A059B52F82330BA
:1031A0001B680393039B23F4E0630393049B1B02BC
:1031B000039A13430393064A059B52F82330039A5C
:1031C0001A6000BF06B07047147F01000C83010035
:1031D0005083010084B00190094B5B690393039B0A
:1031E00023F470230393019B5B68013B1B04039A48
:1031F00013430393024A039B536100BF04B070471B
:103200000040064084B00190094B5B690393039B27
:1032100023F0F0030393019B5B68013B1B01039ABE
:1032200013430393024A039B536100BF04B07047EA
:103230000040064084B00190094B5B690393039BF7
:1032400023F00F030393019B5B68013B039A134335
:103250000393034A039B536100BF04B0704700BF50
:103260000040064084B00190094B9B690393039B87
:1032700023F470230393019B5B68013B1B04039AB7
:1032800013430393024A039B936100BF04B070474A
:103290000040064084B00190094B9B690393039B57
:1032A00023F0F0030393019B5B68013B1B01039A2E
:1032B00013430393024A039B936100BF04B070471A
:1032C0000040064084B00190094B9B690393039B27
:1032D00023F00F030393019B5B68013B039A1343A5
:1032E0000393034A039B936100BF04B0704700BF80
:1032F0000040064084B00190094BDB690393039BB7
:1033000023F470230393019B5B68013B1B04039A26
:1033100013430393024A039BD36100BF04B0704779
:103320000040064084B00190094BDB690393039B86
:1033300023F0F0030393019B5B68013B1B01039A9D
:1033400013430393024A039BD36100BF04B0704749
:103350000040064084B00190094BDB690393039B56
:1033600023F00F030393019B5B68013B039A134314
:103370000393034A039BD36100BF04B0704700BFAF
:103380000040064084B001900A4B5B680393039BA6
:1033900023F4E0630393019B5B68013B1B0203F48E
:1033A000E063039A13430393024A039B536000BFF5
:1033B00004B070470080044084B001901949019B1B
:1033C0001A6819481346DB001344034405331B787D
:1033D00051F823300393039B23F00F030393019BC6
:1033E0005B68013B03F00703039A13430393019BBC
:1033F0001B7A013BDB0003F00803039A134303939A
:103400000849019B1A6808481346DB00134403442B
:1034100005331B781A46039B41F8223000BF04B0E5
:10342000704700BF00500640147F010084B0019037
:10343000104B9B6E0F4A23F0805393660D4B9B6E8F
:103440000393039B23F00F030393019B5B68013BF2
:103450005B0003F00E02019B1B7A013B03F00103AA
:103460001343039A13430393024A039B936600BFDB
:1034700004B070470080044082B0019000BF02B0E9
:103480007047000082B0019000BF02B0704782B068
:10349000019000BF02B0704700B583B00190019B5E
:1034A000002B02D0019800F06AF800BF03B05DF86D
:1034B00004FB00B583B00190019B002B02D0019862
:1034C00000F084F800BF03B05DF804FB00B589B0DC
:1034D000019000238DF81F30019B002B31D01B4B36
:1034E000D3F8003103F00103002B2AD003AA04A96A
:1034F00005A84CF25033FFF71DFD144BD3F80031F3
:103500001B0E03F001030693039A04A905AB1846AA
:10351000FFF72AFD03468DF81F30069B002B06D1CE
:103520009DF81F3083F00103DBB2002BE5D19DF83D
:103530001F30002B05D0019B1B6819460120FFF7A7
:10354000E9FC00BF09B05DF804FB00BF0040064085
:1035500000B583B00190019800F0C0F800BF03B03F
:103560005DF804FB00B583B00190019B002B02D0F5
:10357000019800F0C3F800BF03B05DF804FB82B00F
:103580000190114BD3F800310F4A23F40003C2F825
:1035900000310D4BD3F800310B4A23F48033C2F8CD
:1035A0000031094BD3F80031074A23F40033C2F845
:1035B0000031054BD3F80031034A23F00103C2F870
:1035C000003100BF02B070470040064082B0019059
:1035D000019B1B89012B74D1019BDB7B002B02D04B
:1035E000012B09D011E0394BD3F80831374A23F0C9
:1035F0000803C2F8083108E0344BD3F80831334AE5
:1036000043F00803C2F8083100BF304BD3F808314B
:103610002E4A23F03003C2F80831019B5B682C4A24
:1036200093420DD9019B5B682A4A934208D2274BEB
:10363000D3F80831254A43F02003C2F8083107E0E7
:10364000224BD3F80831214A43F03003C2F8083145
:10365000019B1B7B002B08D11C4BD3F808311B4A64
:1036600043F00403C2F8083107E0184BD3F80831DF
:10367000164A23F00403C2F80831019B1B7C022B7D
:1036800011D0022B14DC002B02D0012B05D00FE04F
:103690000E4B0122C3F8002114E00C4B4FF0011235
:1036A000C3F800210EE0094B0B4AC3F8002109E0E2
:1036B000064BD3F80031054A43F00103C2F800314C
:1036C00000E000BF00BF02B0704700BF00400640EE
:1036D000FF083D0000127A000100030082B0019053
:1036E000054BD3F80031044A23F00103C2F800313E
:1036F00000BF02B0704700BF0040064082B001909A
:10370000019B1B89012B07D1054BD3F80031044ADB
:1037100043F00103C2F8003100BF02B0704700BFA0
:103720000040064082B0019000BF02B0704782B0F6
:1037300001900023184602B0704782B001900091BA
:1037400000BF02B07047000082B0019000BF02B01D
:10375000704782B001900B468DF8033000BF02B075
:10376000704700B583B00190019B002B02D00198F7
:1037700000F0E7F800BF03B05DF804FB00B585B0CA
:1037800001900B468DF80330019B02939DF80330A6
:10379000002B03D00023ADF80C3002E00123ADF87C
:1037A0000C3002AB1846FFF7DCFF00BF05B05DF838
:1037B00004FB00B583B00190019B002B02D001985F
:1037C00000F0D6F800BF03B05DF804FB00B585B08B
:1037D00001900B468DF80330019B02939DF8033056
:1037E000002B03D00023ADF80C3002E00123ADF82C
:1037F0000C3002AB1846FFF7DCFF00BF05B05DF8E8
:1038000004FB00B583B00190019B002B02D001980E
:1038100000F0C6F800BF03B05DF804FB00B585B04A
:1038200001900B468DF80330019B02939DF8033005
:10383000002B03D00023ADF80C3002E00123ADF8DB
:103840000C3002AB1846FFF7DCFF00BF05B05DF897
:1038500004FB00B583B00190019B002B02D00198BE
:1038600000F0B6F800BF03B05DF804FB00B585B00A
:1038700001900B468DF80330019B02939DF80330B5
:10388000002B03D00023ADF80C3002E00123ADF88B
:103890000C3002AB1846FFF7DCFF00BF05B05DF847
:1038A00004FB00B583B00190019B002B02D001986E
:1038B00000F0BCF800BF03B05DF804FB00B585B0B4
:1038C00001900B468DF80330019B02939DF8033065
:1038D000002B03D00023ADF80C3002E00123ADF83B
:1038E0000C3002AB1846FFF7DCFF00BF05B05DF8F7
:1038F00004FB00B583B00190019B002B02D001981E
:1039000000F0C0F800BF03B05DF804FB00B585B05F
:1039100001900B468DF80330019B02939DF8033014
:10392000002B03D00023ADF80C3002E00123ADF8EA
:103930000C3002AB1846FFF7DCFF00BF05B05DF8A6
:1039400004FB84B00190094B1B690393039B23F094
:1039500001030393019B9B881A46039B1343039324
:10396000024A039B136100BF04B07047008004400B
:1039700084B00190094B1B690393039B23F002035E
:103980000393019B9B885B00039A13430393034AB1
:10399000039B136100BF04B0704700BF0080044068
:1039A00084B00190094B5B680393039B23F400638D
:1039B0000393019B9B88DB02039A13430393034AFF
:1039C000039B536000BF04B0704700BF00800440F9
:1039D00084B001901349019B1A6813481346DB0019
:1039E0001344034406331B7851F823300393039B9D
:1039F00023F080430393019B9B889B07039A134307
:103A000003930849019B1A6807481346DB001344D7
:103A1000034406331B781A46039B41F8223000BF4B
:103A200004B0704700500640147F010086B001903A
:103A3000019B9B880593019B1A6810491346DB0084
:103A400013440B4406331B7804930D4B1B6C0393F8
:103A50000122049B02FA03F3DB43039A134003930E
:103A6000059A049B02FA03F3039A13430393044A4F
:103A7000039B136400BF06B0704700BF147F0100B2
:103A80000080044084B001900A4B9B6E0393019B1D
:103A90009B88012B04D1039B43F08053039303E0E5
:103AA000039B23F080530393024A039B936600BF5A
:103AB00004B070470080044082B0019000BF02B0A3
:103AC000704782B0019000BF02B0704700B583B06C
:103AD0000190019B002B02D0019800F0D1F800BFAB
:103AE00003B05DF804FB00B583B00190019B002B8F
:103AF00002D0019800F050F900BF03B05DF804FB5C
:103B000000B583B00190019800F08EF900BF03B0BA
:103B10005DF804FB00B583B00190019B002B02D03F
:103B2000019800F099F900BF03B05DF804FB00B5FF
:103B300083B00190019B002B02D0019800F0B0F9F6
:103B400000BF03B05DF804FB00B583B0019001989D
:103B500000F0BAF900BF03B05DF804FB00B583B014
:103B60000190019B002B02D0019800F0BDF900BF2D
:103B700003B05DF804FB00B583B00190019B002BFE
:103B800002D0019800F0D4F900BF03B05DF804FB47
:103B900000B583B00190019800F0DEF900BF03B0DA
:103BA0005DF804FB00B589B0019000238DF81F304B
:103BB000204B5B690693069B23F070630693019B81
:103BC0001B06069A134306931A4A069B536102AAE0
:103BD00003A904A84CF25033FFF7ACF9154B1B694D
:103BE0001B0E03F00F03019A9A420CBF012300231E
:103BF000DBB20593029A03A904AB1846FFF7B4F9A8
:103C000003468DF81F30059B002B06D19DF81F3011
:103C100083F00103DBB2002BE0D19DF81F30002BB5
:103C200003D005210120FFF775F900BF09B05DF849
:103C300004FB00BF0040064000B583B00190019B2B
:103C4000002B02D0019800F097F900BF03B05DF897
:103C500004FB00B583B00190019B002B02D00198BA
:103C600000F07EFA00BF03B05DF804FB00B583B03E
:103C70000190019800F0B8FA00BF03B05DF804FBB2
:103C800000B58BB0019000238DF82730019B002BED
:103C90000BD10523029301238DF80F300123ADF8DA
:103CA0000C3001238DF810300EE0019B1B6802934D
:103CB000019BDB798DF80F30019B9B88ADF80C30B0
:103CC000019B1B7A8DF81030324BD3F80032314A09
:103CD00023F40003C2F800322E4BD3F800322D4AF1
:103CE00023F00103C2F800322A4BD3F80032294AEC
:103CF00023F00403C2F80032BDF80C30012B44D18C
:103D00009DF80F30234A03F00103C2F80832214B1B
:103D1000D3F800321F4A43F00103C2F800321D4BB2
:103D2000D3F800229DF810309B0003F004031949DA
:103D30001343C1F8003205AA06A907A84CF2503374
:103D4000FFF7F8F8134BD3F800321B0E03F0010312
:103D50000893059A06A907AB1846FFF705F903462D
:103D60008DF82730089B002B06D19DF8273083F073
:103D70000103DBB2002BE5D19DF82730002B04D0E6
:103D8000029B19460120FFF7C5F800BF0BB05DF894
:103D900004FB00BF0040064000B589B0019000233D
:103DA0008DF81F301F4BD3F800321E4A43F0010339
:103DB000C2F800321B4BD3F800321A4A43F0040316
:103DC000C2F8003203AA04A905A84CF25033FFF749
:103DD000B1F8144BD3F800321B0E03F00103069325
:103DE000039A04A905AB1846FFF7BEF803468DF801
:103DF0001F30069B002B06D19DF81F3083F0010376
:103E0000DBB2002BE5D19DF81F30002B05D0019BC4
:103E10001B6819460120FFF77DF800BF09B05DF867
:103E200004FB00BF0040064082B00190094BD3F86C
:103E30000032084A23F00103C2F80032054BD3F8E0
:103E40000032044A23F00403C2F8003200BF02B07B
:103E5000704700BF0040064082B001900F4BD3F87E
:103E600000320E4A23F40003C2F800320B4BD3F8A1
:103E700000320A4A23F00403C2F80032074BD3F899
:103E80000022019B1B7A9B0003F0040303491343A8
:103E9000C1F8003200BF02B0704700BF00400640CA
:103EA00082B00190019B9B88012B07D1054BD3F871
:103EB0000032044A43F00403C2F8003200BF02B0EB
:103EC000704700BF0040064082B00190054BD3F818
:103ED0000032044A23F00403C2F8003200BF02B0EB
:103EE000704700BF0040064082B001900F4BD3F8EE
:103EF00000320E4A23F40003C2F800320B4BD3F811
:103F000000320A4A23F00203C2F80032074BD3F80A
:103F10000022019B5B7A5B0003F002030349134319
:103F2000C1F8003200BF02B0704700BF0040064039
:103F300082B00190019B9B88012B07D1054BD3F8E0
:103F40000032044A43F00203C2F8003200BF02B05C
:103F5000704700BF0040064082B00190054BD3F887
:103F60000032044A23F00203C2F8003200BF02B05C
:103F7000704700BF0040064000B58BB00190019B28
:103F80001A6875491346DB0013440B441B780893E9
:103F900000238DF81F3000238DF827306F4BD3F8A6
:103FA00000336E4A23F40003C2F800336B4BD3F89E
:103FB000003303F00073002B7DD0019BDB791A46A0
:103FC000664BD3F8083303F003039A420BD1019BED
:103FD0009B791A46614BD3F80033DB0803F00103E9
:103FE0009A4200F0B4805D4BD3F8003203F0010335
:103FF000002B05D101238DF827300020FFF766FD47
:104000000220FFF7CFFD554BD3F80033534A23F07E
:104010000103C2F80033019B9B88012B40F097807D
:10402000019BDB794D4A03F00303C2F808334B4B85
:10403000D3F80023019B9B79DB0003F008031343B3
:10404000464A43F00103C2F8003303AA04A905A8B5
:104050004CF25033FEF76EFF404BD3F800331B0E8B
:1040600003F001030693039A04A905AB1846FEF773
:104070007BFF03468DF81F30069B002B06D19DF871
:104080001F3083F00103DBB2002BE5D19DF81F3018
:10409000002B05D0019B1B6819460120FEF73AFF53
:1040A0000320FFF77FFD9DF82730002B4FD0022023
:1040B000FFF726FD4BE0294BD3F80033274A23F0C6
:1040C0000103C2F80033019B9B88012B3FD1019B68
:1040D000DB79224A03F00303C2F808331F4BD3F8FD
:1040E0000023019B9B79DB0003F0080313431B4A69
:1040F00043F00103C2F8003303AA04A905A84CF257
:104100005033FEF717FF154BD3F800331B0E03F0A7
:1041100001030693039A04A905AB1846FEF724FF92
:1041200003468DF81F30069B002B06D19DF81F30EB
:1041300083F00103DBB2002BE5D19DF81F30002B8B
:1041400005D0019B1B6819460120FEF7E3FE00BF66
:104150000BB05DF804FB00BF147F01000040064077
:1041600000B589B0019000238DF81F30019B9B881A
:10417000012B32D11B4BD3F800331A4A43F0010311
:10418000C2F8003303AA04A905A84CF25033FEF785
:10419000D1FE144BD3F800331B0E03F0010306933A
:1041A000039A04A905AB1846FEF7DEFE03468DF818
:1041B0001F30069B002B06D19DF81F3083F00103B2
:1041C000DBB2002BE5D19DF81F30002B05D0019B01
:1041D0001B6819460120FEF79DFE00BF09B05DF87F
:1041E00004FB00BF0040064082B00190054BD3F8AD
:1041F0000033044A23F00103C2F8003300BF02B0C9
:10420000704700BF0040064082B0019000BF02B07E
:10421000704782B00190009100BF02B0704782B039
:10422000019000BF02B0704782B0019000BF02B0A1
:10423000704782B001900223184602B0704782B0E6
:10424000019000BF02B0704700B583B00190019BA0
:10425000002B02D0019800F070F800BF03B05DF8A9
:1042600004FB00B583B00190019B002B02D00198A4
:1042700000F09AF800BF03B05DF804FB00B589B008
:1042800001900123079300238DF81B301E4BD3F8B8
:10429000003603F00103002B2FD002AA03A904A8C3
:1042A0004CF25033FEF746FE174BD3F800361B0E88
:1042B00003F001030593029A03A904AB1846FEF725
:1042C00053FE03468DF81B30059B002B06D19DF84D
:1042D0001B3083F00103DBB2002BE5D19DF81B30CE
:1042E00083F00103DBB2002B02D00223079306E028
:1042F00001990120FEF70EFE01E000230793079BC2
:10430000184609B05DF804FB0040064000B583B0D4
:104310000190019800F086F800BF03B05DF804FB3F
:1043200000B583B00190019B002B02D0019800F0F2
:1043300091F800BF03B05DF804FB82B00190194B07
:10434000D3F80036174A23F40003C2F80036154BA1
:10435000D3F80036134A23F48033C2F80036114BE9
:10436000D3F800360F4A23F40033C2F800360D4B61
:10437000D3F800360B4A23F00103C2F80036094B8C
:10438000D3F80836074A23F4E063C2F80836054B31
:10439000D3F80836034A23F4F813C2F8083600BFEE
:1043A00002B070470040064082B00190019B9B889C
:1043B000012B2FD11A4BD3F80826019B5B7B013BC5
:1043C0001B0203F4E061019B1B7D103B1B0403F403
:1043D000F8130B4312491343C1F80836019BDB7FE6
:1043E000022B11D0022B17DC002B02D0012B05D0A1
:1043F00012E00B4B0022C3F800260EE0084B4FF4EE
:104400008032C3F8002608E0054B4FF44032C3F871
:10441000002602E000BF00E000BF00BF02B070470E
:104420000040064082B00190094BD3F80036084A9C
:1044300023F40003C2F80036054BD3F80036044AD3
:1044400023F00103C2F8003600BF02B0704700BF7E
:104450000040064082B00190019B9B88012B07D150
:10446000054BD3F80036044A43F00103C2F8003686
:1044700000BF02B0704700BF0040064082B001900C
:10448000009100BF02B0704782B0019000BF02B03F
:10449000704700B583B00190019B002B02D00198BA
:1044A00000F0EEF800BF03B05DF804FB00B583B088
:1044B0000190019B002B02D0019800F0FFF800BF93
:1044C00003B05DF804FB00B583B00190019B002BA5
:1044D00002D0019800F012F900BF03B05DF804FBB0
:1044E00000B583B00190019B002B02D0019800F031
:1044F00025F900BF03B05DF804FB00B583B001905F
:10450000019B002B02D0019800F036F900BF03B0E8
:104510005DF804FB00B583B00190019B002B02D035
:10452000019800F049F900BF03B05DF804FB00B545
:1045300083B00190019B002B02D0019800F058F944
:1045400000BF03B05DF804FB00B583B00190019B90
:10455000002B02D0019800F069F900BF03B05DF8AC
:1045600004FB00B583B00190019B002B02D00198A1
:1045700000F078F900BF03B05DF804FB00B583B02C
:104580000190019B002B02D0019800F089F900BF37
:1045900003B05DF804FB00B583B00190019B002BD4
:1045A00002D0019800F098F900BF03B05DF804FB59
:1045B00000B583B00190019B002B02D0019800F060
:1045C000A9F900BF03B05DF804FB00B583B001900A
:1045D000019B002B02D0019800F0E6F900BF03B068
:1045E0005DF804FB00B583B00190019B002B02D065
:1045F000019800F025FA00BF03B05DF804FB00B598
:1046000083B00190019B002B02D0019800F02AFAA0
:1046100000BF03B05DF804FB00B583B00190019BBF
:10462000002B02D0019800F03BFA00BF03B05DF808
:1046300004FB00B583B00190019B002B02D00198D0
:1046400000F056FA00BF03B05DF804FB00B583B07C
:104650000190019B002B02D0019800F079FA00BF75
:1046600003B05DF804FB00B583B00190019B002B03
:1046700002D0019800F08AFA00BF03B05DF804FB95
:1046800084B001900B4B5B7903930B4B5B690293F6
:10469000029B23F070630293039B1B0603F070637D
:1046A000029A13430293044A029B536100BF04B071
:1046B000704700BF7C8201000040064084B001903A
:1046C000019B5B680B4AD35C03930B4B5B690293C2
:1046D000029B23F070630293039B1B0603F070633D
:1046E000029A13430293044A029B536100BF04B031
:1046F000704700BF7C8201000040064084B00190FA
:10470000019B5B680B4AD35C03930B4B9B69029341
:10471000029B23F070630293039B1B0603F07063FC
:10472000029A13430293044A029B936100BF04B0B0
:10473000704700BF7C8201000040064084B00190B9
:104740000B4B5B7903930B4BDB690293029B23F0CA
:1047500070630293039B1B0603F07063029A13437A
:104760000293044A029BD36100BF04B0704700BFAC
:104770007C8201000040064084B00190019B5B6890
:104780000B4AD35C03930B4BDB690293029B23F030
:1047900070630293039B1B0603F07063029A13433A
:1047A0000293044A029BD36100BF04B0704700BF6C
:1047B0007C8201000040064084B001900A4B9B7B44
:1047C00003930A4B1B690293029B23F0300302936D
:1047D000039B1B01029A13430293044A029B136139
:1047E00000BF04B0704700BF248201000080044075
:1047F00084B00190019B5B680A4AD35C03930A4B27
:104800001B690293029B23F030030293039B1B015D
:10481000029A13430293044A029B136100BF04B03F
:10482000704700BF248201000080044084B00190E2
:104830000A4B5B7803930A4B1B690293029B23F09C
:104840000C030293039B9B00029A13430293044AB6
:10485000029B136100BF04B0704700BFDC820100FF
:104860000080044084B00190019B5B680A4AD35CDD
:1048700003930A4B1B690293029B23F00C030293E0
:10488000039B9B00029A13430293044A029B136109
:1048900000BF04B0704700BFDC820100008004400C
:1048A00084B001900A4B5B7903930A4B1B6A029315
:1048B000029B23F070630293039B1B06029A13432F
:1048C0000293044A029B136200BF04B0704700BF0A
:1048D0007C8201000040064084B00190019B5B682F
:1048E0000A4AD35C03930A4B1B6A0293029B23F090
:1048F00070630293039B1B06029A13430293044ABC
:10490000029B136200BF04B0704700BF7C820100AD
:104910000040064086B00190204B5B790493019BD8
:104920001A681F491346DB0013440B441B7803939A
:104930001C4BDB680593039B032B13D8039B5B0085
:104940001833032202FA03F3DB43059A134005935D
:10495000039B5B001833049A02FA03F3059A13438E
:10496000059314E0039B043B5B001033032202FA1F
:1049700003F3DB43059A13400593039B043B5B0061
:104980001033049A02FA03F3059A13430593054A78
:10499000059BD36000BF06B0704700BF24820100B2
:1049A000147F01000080044086B00190019B5B6889
:1049B000204AD35C0493019B1A681F491346DB000D
:1049C00013440B441B7803931C4BDB680593039B38
:1049D000032B13D8039B5B001833032202FA03F363
:1049E000DB43059A13400593039B5B001833049A3D
:1049F00002FA03F3059A1343059314E0039B043B67
:104A00005B001033032202FA03F3DB43059A1340E1
:104A10000593039B043B5B001033049A02FA03F3F3
:104A2000059A13430593054A059BD36000BF06B062
:104A3000704700BF24820100147F01000080044001
:104A400084B00190064B5B680393039B23F40F63D0
:104A50000393034A039B536000BF04B0704700BF39
:104A60000080044084B00190019B5B680A4AD35CDB
:104A700003930A4B5B680293029B23F0F0030293BB
:104A8000039B1B01029A13430293044A029B536047
:104A900000BF04B0704700BF2482010000800440C2
:104AA00084B00190019B1A680F491346DB00134440
:104AB0000B4404331B7803930C4A039B52F82330B6
:104AC0000A4923F08042039B41F82320074A039BB5
:104AD00052F82330054923F0E062039B41F823207C
:104AE00000BF04B0704700BF147F010000500640B3
:104AF00086B00190019B1A6812491346DB001344EB
:104B00000B4404331B780593019B5B680E4AD35C0E
:104B100004930E4A059B52F823300393039B23F022
:104B2000E0630393049B1B0603F0E063039A1343C3
:104B300003930649059B039A41F8232000BF06B062
:104B4000704700BF147F0100AC8201000050064096
:104B500084B001900B4B1B7F03930B4B5B6802935C
:104B6000029B23F480530293039B1B0303F48053A3
:104B7000029A13430293044A029B536000BF04B09D
:104B8000704700BF248201000080044084B001907F
:104B9000019B5B680B4AD35C03930B4B5B680293EE
:104BA000029B23F480530293039B1B0303F4805363
:104BB000029A13430293044A029B536000BF04B05D
:104BC000704700BF248201000080044000B585B01A
:104BD000019000238DF80B30019B002B37D0002370
:104BE00003932BE0294B1968039A13465B00134487
:104BF0009B000B4414331B68052B1CD101238DF83B
:104C00000B30224B1968039A13465B0013449B0038
:104C10000B4418331B88002B18D11D4B1B791946E8
:104C20001C4A0B465B000B449B00134408331B6873
:104C3000052098470AE0039B01330393134B1B683D
:104C40001B7A1A46039B9342CCD300E000BF9DF829
:104C50000B3083F00103DBB2002B13D00E4B1B781B
:104C600083F00103DBB2002B0CD0094B1B791946F2
:104C7000084A0B465B000B449B00134408331B6837
:104C80000520984700BF05B05DF804FB9C8BFF1F13
:104C9000A47E0100D4840100188BFF1F064B002264
:104CA000C3F80823044BD3F80033034A43F001034D
:104CB000C2F8003300BF70470040064084B0019046
:104CC000032303930023029328E0019B029A0D32F1
:104CD00053F83230282B0BD1019A029B0D33DB00A5
:104CE00013445B682B4AD35C1B01039A1343039361
:104CF000019B029A0D3253F83230292B0BD1019AC5
:104D0000029B0D33DB0013445B68234AD35C9B009A
:104D1000039A13430393029B01330293019BDB7AB3
:104D20001A46029B9342D0D30023029326E0019AB5
:104D3000029B4E33DB0013445B68122B09D1019AAE
:104D4000029B4E33DB0013441B895B00039A134321
:104D50000393019A029B4E33DB0013445B68132BD1
:104D600009D1019A029B4E33DB0013441B891A467A
:104D7000039B13430393029B01330293019B1B7C10
:104D80001A46029B9342D2D3044A039B136100BF8D
:104D900004B0704724820100DC82010000800440DE
:104DA00000B589B0019000238DF81F30214A019B86
:104DB0001360214BD3F8003303F00103002B2ED1F5
:104DC0001E4B00221A70FFF769FF03AA04A905A869
:104DD0004CF25033FEF7AEF8174BD3F800331B0EEE
:104DE00003F001030693039A04A905AB1846FEF7E6
:104DF000BBF803468DF81F30069B002B06D19DF8AB
:104E00001F3083F00103DBB2002BE5D19DF81F308A
:104E1000002B07D005210120FEF77CF802E0074BAC
:104E200001221A700198FFF749FF00BF09B05DF831
:104E300004FB00BF9C8BFF1F00400640188BFF1F28
:104E400082B000230093294B1B68002B24D0002341
:104E500001931AE0254B1968019A13465B0013442D
:104E60009B000B4414331B68052B0BD11F4B196897
:104E7000019A13465B0013449B0010330B44043328
:104E8000009309E0019B01330193184B1B681B7AC7
:104E90001A46019B9342DDD3009B002B21D1144B7A
:104EA0000093134B05221A60124BD3F800339BB2C8
:104EB00003F001039AB20E4B9A800E4BD3F80833DD
:104EC000DBB203F00303DAB2094BDA71094BD3F812
:104ED0000033DBB2DB10DBB203F00103DAB2044BC8
:104EE0009A71009B184602B0704700BF9C8BFF1F51
:104EF000088CFF1F0040064082B000230093204B27
:104F00001B68002B24D0002301931AE01C4B196866
:104F1000019A13469B0013449B000B442C331B68DF
:104F2000082B0BD1164B1968019A13469B001344AA
:104F30009B0028330B440433009309E0019B0133A9
:104F400001930F4B1B685B7A1A46019B9342DDD39A
:104F5000009B002B10D10B4B00930A4B08221A60C8
:104F6000094BD3F800319BB203F001039AB2054B11
:104F70001A81044B054A5A60009B184602B07047DC
:104F80009C8BFF1F148CFF1F00400640005A6202DA
:104F900082B000230093284B1B68002B23D00023F2
:104FA000019319E0244B1968019A13469B0013449E
:104FB000DB000B4440331B68092B0AD11E4B1968D8
:104FC000019A13469B001344DB0040330B440093CB
:104FD00009E0019B01330193174B1B689B7A1A462A
:104FE000019B9342DED3009B002B21D1134B0093F6
:104FF000124B09221A60124BD3F800369BB203F011
:1050000001039AB20D4B9A800D4BD3F808361B0A58
:10501000DBB203F00703DAB2084B5A73084BD3F83C
:1050200008361B0CDBB203F01F03DAB2034B1A7510
:10503000009B184602B070479C8BFF1F288CFF1FF7
:105040000040064086B0019000230593019B1B2B76
:105050000FD0019B1B2B0FD8019B192B03D0019B59
:105060001A2B03D008E00023049308E001230493E3
:1050700005E00223049302E00023049300BF364BB3
:105080001B68002B1DD00023039313E0324B1B68D9
:10509000039A0D3253F83230019A9A4207D12E4BBF
:1050A0001A68039B0D33DB001344059309E0039B4F
:1050B00001330393284B1B68DB7A1A46039B934208
:1050C000E4D3059B002B40D1049BDB00234A13440F
:1050D00005932249049B019A41F83320019B1B2B25
:1050E00025D0019B1B2B32D8019B192B03D0019B90
:1050F0001A2B0ED02BE01A4B5B691B0E03F00F032B
:10510000184A52F823201549049BDB000B445A60CF
:105110001EE0134B9B691B0E03F00F03114A52F85C
:1051200023200E49049BDB000B445A6010E00C4B1B
:10513000DB691B0E03F00F030A4A52F823200749CC
:10514000049BDB000B445A6002E000BF00E000BF9C
:10515000059B184606B070479C8BFF1F508CFF1FA5
:1051600000400640A485010086B00190002305930D
:1051700000230493019B1F2B0FD0019B1F2B0FD8E3
:10518000019B1D2B03D0019B1E2B03D008E00023A5
:10519000049306E00123049303E00223049300E058
:1051A00000BF414B1B68002B26D0002303931CE05B
:1051B0003D4B1968039A13465B0013449B000B4454
:1051C00003F5A4731B68019A9A420BD1364B1968F8
:1051D000039A13465B0013449B0003F5A4730B442E
:1051E000059309E0039B013303932F4B1B681B7B43
:1051F0001A46039B9342DBD3059B002B4DD1049AA7
:1052000013465B0013449B00284A13440593274927
:10521000049A13465B0013449B000B44019A1A60E6
:10522000019B1F2B29D0019B1F2B38D8019B1D2BC5
:1052300003D0019B1E2B10D031E01D4B5B691B0C72
:1052400003F00F03591C1948049A13465B001344DA
:105250009B0003440433196022E0154B9B691B0C2F
:1052600003F00F03591C1148049A13465B001344C2
:105270009B0003440433196012E00D4BDB691B0CE7
:1052800003F00F03591C0948049A13465B001344AA
:105290009B0003440433196002E000BF00E000BF3C
:1052A000059B184606B070479C8BFF1F688CFF1F3C
:1052B0000040064086B0019000230593002304932C
:1052C000019B232B0FD0019B232B0FD8019B212B5C
:1052D00003D0019B222B03D008E00023049306E0B7
:1052E0000123049303E00223049300E000BF414B39
:1052F0001B68002B26D0002303931CE03D4B19684C
:10530000039A13465B0013449B000B4403F5A473FC
:105310001B68019A9A420BD1364B1968039A1346BF
:105320005B0013449B0003F5A4730B44059309E051
:10533000039B013303932F4B1B681B7B1A46039B74
:105340009342DBD3059B002B4DD1049A13465B009F
:1053500013449B00284A134405932749049A134693
:105360005B0013449B000B44019A1A60019B232BA2
:1053700029D0019B232B38D8019B212B03D0019BE3
:10538000222B10D031E01D4B5B691B0903F00F038A
:10539000591C1948049A13465B0013449B000344AC
:1053A0000433196022E0154B9B691B0903F00F03BE
:1053B000591C1148049A13465B0013449B00034494
:1053C0000433196012E00D4BDB691B0903F00F0376
:1053D000591C0948049A13465B0013449B0003447C
:1053E0000433196002E000BF00E000BF059B1846CF
:1053F00006B070479C8BFF1F8C8CFF1F004006403F
:1054000086B001900023059300230493019B272B72
:105410000FD0019B272B0FD8019B252B03D0019B7D
:10542000262B03D008E00023049306E00123049315
:1054300003E00223049300E000BF404B1B68002BF5
:1054400026D0002303931CE03C4B1968039A1346B3
:105450005B0013449B000B4403F5A4731B68019A83
:105460009A420BD1354B1968039A13465B001344DB
:105470009B0003F5A4730B44059309E0039B0133E0
:1054800003932E4B1B681B7B1A46039B9342DBD373
:10549000059B002B4AD1049A13465B0013449B00E2
:1054A000274A134405932649049A13465B00134484
:1054B0009B000B44019A1A60019B272B27D0019B6C
:1054C000272B35D8019B252B03D0019B262B0FD0F2
:1054D0002EE01C4B5B6903F00F03591C1848049A1B
:1054E00013465B0013449B0003440433196020E01F
:1054F000144B9B6903F00F03591C1148049A13467F
:105500005B0013449B0003440433196011E00D4B0E
:10551000DB6903F00F03591C0948049A13465B002A
:1055200013449B0003440433196002E000BF00E011
:1055300000BF059B184606B0704700BF9C8BFF1F3D
:10554000B08CFF1F0040064000B583B00190644B53
:105550001B7883F00103DBB2002B5BD0604B012290
:105560001A70604B5B781A4613469B0013449B00ED
:105570005D4A13445D4A13605D4B5B781A461346DF
:105580009B0013449B005B4A13445B4A13605B4BD4
:105590001B791A4613465B0013449B00584A134478
:1055A000584A1360584B5B79DB00584A1344584AF9
:1055B0001360554BDB79DB00544A1344554A1360A2
:1055C000554B9B799B00554A1344554A1360524BE7
:1055D0001B7A9B00514A1344524A13604E4B5B7A2C
:1055E0009B004E4A1344504A13604B4BDB7A9B009E
:1055F0004A4A13444D4A1360474B1B7B9B00474A62
:1056000013444B4A1360444B9B7B9B00434A134417
:10561000484A1360484B1B78002B02D0019B002B9B
:1056200003D0464B1B78002B56D0FFF709FC0346EE
:10563000434A1360FFF760FC0346424A1360FFF7DA
:10564000A7FC0346404A13601920FFF7FBFC034602
:105650003E4A13601A20FFF7F5FC03463C4A1360EC
:105660001B20FFF7EFFC03463A4A13601D20FFF7AB
:105670007BFD0346384A13601E20FFF775FD034685
:10568000364A13601F20FFF76FFD0346344A13604C
:105690002120FFF70FFE0346324A13602220FFF756
:1056A00009FE0346304A13602320FFF703FE03463A
:1056B0002E4A13602520FFF7A3FE03462C4A1360F1
:1056C0002620FFF79DFE03462A4A13602720FFF796
:1056D00097FE0346284A136000BF03B05DF804FB41
:1056E000D48CFF1FD47E010020850100A08BFF1FFA
:1056F000947E010068840100A48BFF1FA47E01003A
:10570000D4840100A88BFF1FE47E01004C850100BA
:10571000AC8BFF1FE88BFF1F747E01002484010007
:10572000B08BFF1FEC8BFF1FB48BFF1FF08BFF1F95
:10573000B88BFF1FF48BFF1F198BFF1F108BFF1FF0
:10574000BC8BFF1FC08BFF1FC48BFF1FC88BFF1FAD
:10575000CC8BFF1FF88BFF1FD08BFF1FD48BFF1F3D
:10576000FC8BFF1FD88BFF1FDC8BFF1F008CFF1FE4
:10577000E08BFF1FE48BFF1F048CFF1F00B583B07D
:1057800001900091019B032B00F09080019B032B63
:1057900000F2D380019B002B40D0019B013B012BE9
:1057A00000F2CB80009B002B40F0C980684B0022A8
:1057B0001A70684B1B685B68674A12681046984706
:1057C000664B1B681B68664A126810469847654B13
:1057D0001B681B68644A126810469847634B1B6835
:1057E0001B68634A126810469847624B1B681B6926
:1057F000614A1268126810469847604B1B68DB6864
:105800005F4A12681268104698475E4B1B689B6897
:105810005D4A126812681046984790E0009B022B80
:1058200040F08F804A4B01221A70564B1B685B6810
:10583000554A126810469847504B1B681B69504ADE
:105840001268104698474D4B1B689B684C4A12687B
:1058500010469847474B1B68DB68474A126810465A
:105860009847444B1B689B68434A1268126810466D
:105870009847384B1B685B68444A12681046984743
:10588000364B1B681B68424A126810469847354BD6
:105890001B681B683F4A126810469847334B1B68C9
:1058A0001B683D4A1268104698474AE0009B022B4D
:1058B00049D1274B01221A70324B1B685B68324A70
:1058C0001268104698472D4B1B681B692C4A1268BA
:1058D00010469847294B1B689B68294A1268104656
:1058E0009847244B1B68DB68234A12681046984788
:1058F000204B1B689B68204A126812681046984724
:10590000264B1B685B68264A126810469847254B51
:105910001B681B68244A126810469847234B1B6873
:105920001B68234A126810469847224B1B681B6865
:10593000214A12681046984705E000BF04E000BF06
:1059400002E000BF00E000BF00BF03B05DF804FB51
:10595000198BFF1FAC8BFF1FCC8BFF1FB08BFF1F62
:10596000D48BFF1FB48BFF1FDC8BFF1FB88BFF1F77
:10597000E48BFF1FA08BFF1FC48BFF1FA48BFF1F97
:10598000C08BFF1FA88BFF1FBC8BFF1FC88BFF1F87
:10599000D08BFF1FD88BFF1FE08BFF1FE88BFF1FF3
:1059A000F88BFF1FEC8BFF1FFC8BFF1FF08BFF1F83
:1059B000008CFF1FF48BFF1F048CFF1F00B583B00A
:1059C00001900091009B042B10D0009B042B11D858
:1059D000009B012B06D0009B022B0BD10198FFF7F7
:1059E000B3FD08E00198FFF7DBF904E00198FFF749
:1059F000EDF800E000BF00BF03B05DF804FB00BF9E
:105A000000B585B0019000238DF80F30019B002B6D
:105A100008D101238DF80F301123002200216520C9
:105A200011F096F99DF80F30184605B05DF804FBAB
:105A300000B585B0019000238DF80F300A4B1B682C
:105A4000DB68019A9A4208D301238DF80F300B23AB
:105A500002220021652011F07BF99DF80F301846D5
:105A600005B05DF804FB00BFE08CFF1F00B585B0FA
:105A7000019000238DF80F300A4B1B689B68019A38
:105A80009A4208D301238DF80F300C2308220021FD
:105A9000652011F05DF99DF80F30184605B05DF8EE
:105AA00004FB00BFE08CFF1F00B585B00190002310
:105AB0008DF80F30019B002B08D101238DF80F309A
:105AC000102309220021652011F042F99DF80F30C2
:105AD000184605B05DF804FB00B585B003468DF8A7
:105AE000073000238DF80F309DF80730002B0ED1C2
:105AF000134B1B68032B1CD001238DF80F309DF82E
:105B0000072013230021652011F022F911E00C4B2E
:105B10001B68032B0AD101238DF80F309DF8072055
:105B20000F230021652011F013F902E0044B0A2233
:105B30001A609DF80F30184605B05DF804FB00BFF1
:105B40001C8BFF1F82B003460A468DF807301346B0
:105B50008DF806309DF80630002B0BD19DF80730EC
:105B6000002B03D1064B0C221A6006E0044B0322E3
:105B70001A6002E0024B0C221A6000BF02B07047AC
:105B80001C8BFF1F00B585B001900020FFF7A4FF1C
:105B900003468DF80B309DF80B30002B50D1019847
:105BA000FFF72EFF03468DF80B309DF80B30002BCE
:105BB0003DD1254A019B13600023039310E0224B43
:105BC0001B681969039A13465B0013449B000B443E
:105BD0001B68039AD1B21D4AD154039B013303932E
:105BE000194B1B689B68039A9A42E8D300230393DE
:105BF00010E0154B1B685969039A1346DB019B1A89
:105C0000DB000B441B68039AD1B2114AD154039BA9
:105C1000013303930C4B1B68DB68039A9A42E8D369
:105C2000094B1B689B69184600F00CF902E0064B13
:105C300000221A609DF80B3000211846FFF782FF02
:105C400000BF05B05DF804FBE08CFF1FDC8CFF1F7C
:105C5000D88CFF1F00B585B0019001238DF80F305F
:105C60000120FFF739FF0346002B03D1012100205B
:105C7000FFF768FF9DF80F30184605B05DF804FB8C
:105C800000B585B00190174A019B13441B788DF82D
:105C90000E3001238DF80F300220FFF71DFF034661
:105CA000002B19D10198FFF7C3FE0346002B0FD13B
:105CB0000D4B1B6859699DF80E201346DB019B1A9A
:105CC000DB000B44184600F0C7F800238DF80F30B6
:105CD00002210020FFF736FF9DF80F30184605B06F
:105CE0005DF804FBD88CFF1FE08CFF1F00B585B06A
:105CF0000190154A019B13441B788DF80F30082042
:105D0000FFF7EAFE0346002B1AD10198FFF7AEFE1B
:105D10000346002B10D10EF0D3FE0C4B1B68196903
:105D20009DF80F2013465B0013449B000B4418465C
:105D300000F09CF80EF0F0FE08210020FFF702FFB3
:105D400000BF05B05DF804FBDC8CFF1FE08CFF1F7B
:105D500000B583B0022301930420FFF7BDFE034684
:105D6000002B03D104210020FFF7ECFE019B184615
:105D700003B05DF804FB00B583B00E23019305204A
:105D8000FFF7AAFE0346002B06D100F079F8019038
:105D900005210020FFF7D6FE019B184603B05DF8F1
:105DA00004FB00B583B04FF0FF3301930620FFF7EB
:105DB00093FE0346002B06D100F068F801900621FF
:105DC0000020FFF7BFFE019B184603B05DF804FBFF
:105DD00000B583B001900198FFF766FE0346002BE3
:105DE0000ED1019B2B221A80019B65225A80019BB8
:105DF00002221A71019B00225A71019B00229A71A2
:105E000000BF03B05DF804FB00B583B001901A2019
:105E1000FFF762FE0346002B06D1019800F03CF824
:105E20001A210020FFF78EFE00BF03B05DF804FBCF
:105E300082B00190024B1B68002B00BF02B070477C
:105E4000E08CFF1F00B583B00190019800F082F84C
:105E500000BF03B05DF804FB00B583B0019001986A
